{
  "_format": "hh-sol-artifact-1",
  "contractName": "TokenVesting",
  "sourceName": "contracts/TokenVesting.sol",
  "abi": [
    {
      "inputs": [
        {
          "internalType": "address",
          "name": "b",
          "type": "address"
        },
        {
          "internalType": "uint256",
          "name": "s",
          "type": "uint256"
        },
        {
          "internalType": "uint256",
          "name": "d",
          "type": "uint256"
        }
      ],
      "stateMutability": "nonpayable",
      "type": "constructor"
    },
    {
      "anonymous": false,
      "inputs": [
        {
          "indexed": true,
          "internalType": "uint256",
          "name": "amount",
          "type": "uint256"
        },
        {
          "indexed": true,
          "internalType": "uint256",
          "name": "timestamp",
          "type": "uint256"
        }
      ],
      "name": "ETHFunded",
      "type": "event"
    },
    {
      "anonymous": false,
      "inputs": [
        {
          "indexed": true,
          "internalType": "uint256",
          "name": "amount",
          "type": "uint256"
        },
        {
          "indexed": true,
          "internalType": "address",
          "name": "to",
          "type": "address"
        }
      ],
      "name": "ETHReleased",
      "type": "event"
    },
    {
      "inputs": [],
      "name": "beneficiary",
      "outputs": [
        {
          "internalType": "address",
          "name": "",
          "type": "address"
        }
      ],
      "stateMutability": "view",
      "type": "function"
    },
    {
      "inputs": [],
      "name": "duration",
      "outputs": [
        {
          "internalType": "uint256",
          "name": "",
          "type": "uint256"
        }
      ],
      "stateMutability": "view",
      "type": "function"
    },
    {
      "inputs": [],
      "name": "release",
      "outputs": [],
      "stateMutability": "nonpayable",
      "type": "function"
    },
    {
      "inputs": [],
      "name": "released",
      "outputs": [
        {
          "internalType": "uint256",
          "name": "",
          "type": "uint256"
        }
      ],
      "stateMutability": "view",
      "type": "function"
    },
    {
      "inputs": [],
      "name": "start",
      "outputs": [
        {
          "internalType": "uint256",
          "name": "",
          "type": "uint256"
        }
      ],
      "stateMutability": "view",
      "type": "function"
    },
    {
      "inputs": [],
      "name": "totalAmount",
      "outputs": [
        {
          "internalType": "uint256",
          "name": "",
          "type": "uint256"
        }
      ],
      "stateMutability": "view",
      "type": "function"
    },
    {
      "inputs": [
        {
          "internalType": "uint256",
          "name": "t",
          "type": "uint256"
        }
      ],
      "name": "vestedAmount",
      "outputs": [
        {
          "internalType": "uint256",
          "name": "",
          "type": "uint256"
        }
      ],
      "stateMutability": "view",
      "type": "function"
    },
    {
      "stateMutability": "payable",
      "type": "receive"
    }
  ],
  "bytecode": "0x608060405234801561001057600080fd5b5060405161062c38038061062c83398101604081905261002f91610176565b6001600160a01b0383166100955760405162461bcd60e51b815260206004820152602260248201527f42656e65666963696172792063616e6e6f74206265207a65726f206164647265604482015261737360f01b60648201526084015b60405180910390fd5b600081116100f05760405162461bcd60e51b815260206004820152602260248201527f4475726174696f6e206d7573742062652067726561746572207468616e207a65604482015261726f60f01b606482015260840161008c565b42821115806100fe57504282115b61014a5760405162461bcd60e51b815260206004820152601860248201527f53746172742074696d65206d7573742062652076616c69640000000000000000604482015260640161008c565b600080546001600160a01b0319166001600160a01b0394909416939093179092556001556002556101b9565b60008060006060848603121561018b57600080fd5b83516001600160a01b03811681146101a257600080fd5b602085015160409095015190969495509392505050565b610464806101c86000396000f3fe6080604052600436106100745760003560e01c806338af3eed1161004e57806338af3eed1461016857806386d1a69f146101a057806396132521146101b7578063be9a6555146101cd57600080fd5b80630fb5a6b4146101095780631a39d8ef146101325780631bfce8531461014857600080fd5b3661010457600034116100be5760405162461bcd60e51b815260206004820152600d60248201526c09aeae6e840e6cadcc8408aa89609b1b60448201526064015b60405180910390fd5b34600360008282546100d091906103b6565b9091555050604051429034907f6124562c650f17ee4ff0ec6e4d707302107c5d25af874b5457ca2a285d7ab3c490600090a3005b600080fd5b34801561011557600080fd5b5061011f60025481565b6040519081526020015b60405180910390f35b34801561013e57600080fd5b5061011f60035481565b34801561015457600080fd5b5061011f6101633660046103c9565b6101e3565b34801561017457600080fd5b50600054610188906001600160a01b031681565b6040516001600160a01b039091168152602001610129565b3480156101ac57600080fd5b506101b5610242565b005b3480156101c357600080fd5b5061011f60045481565b3480156101d957600080fd5b5061011f60015481565b60006001548210156101f757506000919050565b60025460015461020791906103b6565b821061021557505060035490565b60025460015461022590846103e2565b60035461023291906103f5565b61023c919061040c565b92915050565b600061024d426101e3565b905060045481116102a05760405162461bcd60e51b815260206004820152601f60248201527f4e6f20746f6b656e7320617661696c61626c6520666f722072656c656173650060448201526064016100b5565b6000600454826102b091906103e2565b905080600460008282546102c491906103b6565b9091555050600080546040516001600160a01b039091169083908381818185875af1925050503d8060008114610316576040519150601f19603f3d011682016040523d82523d6000602084013e61031b565b606091505b50509050806103625760405162461bcd60e51b8152602060048201526013602482015272115512081d1c985b9cd9995c8819985a5b1959606a1b60448201526064016100b5565b600080546040516001600160a01b039091169184917fb16b04cadf7ed5f86fe3324bde99af9dcf2f2ee8939acbfd98f57e10d417ff1c9190a3505050565b634e487b7160e01b600052601160045260246000fd5b8082018082111561023c5761023c6103a0565b6000602082840312156103db57600080fd5b5035919050565b8181038181111561023c5761023c6103a0565b808202811582820484141761023c5761023c6103a0565b60008261042957634e487b7160e01b600052601260045260246000fd5b50049056fea2646970667358221220bf925f4ad052576c744642e49bdb799be8ea31b6c1e4142b019b4b5157cf025a64736f6c63430008140033",
  "linkReferences": {},
  "deployedLinkReferences": {}
}